S00D0000736E616B652E7372656305
S11300000C9434000C9451000C9451000C94510045
S11300100C9451000C9451000C9451000C94510018
S11300200C9451000C9451000C9451000C94510008
S11300300C9451000C948E000C9451000C945100BB
S11300400C9451000C9451000C9451000C945100E8
S11300500C9451000C9451000C9451000C945100D8
S11300600C9451000C94510011241FBECFEFD8E022
S1130070DEBFCDBF11E0A0E0B1E0E6E8F2E002C0EF
S113008005900D92AA30B107D9F721E0AAE0B1E0BA
S113009001C01D92AB30B207E1F70E9478000C94C6
S11300A041010C940000FC01408121E030E002C0D9
S11300B0220F331F6A95E2F7242B20830895FC0155
S11300C0908121E030E002C0220F331F6A95E2F7ED
S11300D02095292320830895FC01408121E030E00C
S11300E002C0220F331F6A95E2F7242B2083089560
S11300F00E94C20060E080910A010E94D200E1E8FF
S1130100F0E080818B7F8083808183608083EFE651
S1130110F0E08081816080837894FFCF1F920F92FA
S11301200FB60F9211242F933F934F935F936F93C6
S11301307F938F939F93AF93BF93EF93FF9380919C
S11301400A018F5F80930A0160E00E94D2008091CF
S11301500A01863030F010920A0160E080E00E94CB
S1130160D200FF91EF91BF91AF919F918F917F91B9
S11301706F915F914F913F912F910F900FBE0F9010
S11301801F90189564E08AE290E00E94530067E0B3
S11301908AE290E00E94530060E084E290E00E94D2
S11301A0530008951F93CF93DF93E82FF0E0EC5FA3
S11301B0FE4F1081E62FF0E0E050FF4FD08160E069
S11301C085E290E00E945F0064E08BE290E00E9490
S11301D05F0067E08BE290E00E945F0085E08A9513
S11301E0F1F70000C8E010FD06C060E085E290E091
S11301F00E945F0005C060E085E290E00E946C0010
S113020067E08BE290E00E946C0085E08A95F1F74C
S1130210000067E08BE290E00E945F001695C150F9
S113022011F7C8E0D0FD06C060E085E290E00E94CE
S11302305F0005C060E085E290E00E946C0085E00C
S11302408A95F1F7000067E08BE290E00E946C0071
S113025085E08A95F1F7000067E08BE290E00E9468
S11302605F00D695C150F1F664E08BE290E00E9405
S11302706C0085E08A95F1F70000DF91CF911F9122
S10902800895F894FFCF7D
S10D0286102040807FBFDFEFF7FB7C
S9030000FC
