S00C0000756172742E737265635C
S11300000C9434000C9451000C9451000C94510045
S11300100C9451000C9451000C9451000C94510018
S11300200C9451000C9451000C9451000C94510008
S11300300C9451000C9447010C9451000C94510001
S11300400C9451000C9451000C942B020C94590202
S11300500C9451000C9466010C9451000C945100C2
S11300600C9451000C94510011241FBECFEFD8E022
S1130070DEBFCDBF11E0A0E0B1E0EEEEF5E002C0DE
S113008005900D92A835B107D9F721E0A8E5B1E0B4
S113009001C01D92AE39B207E1F70E94F6000C943C
S11300A0F5020C940000299A000029980895CF9332
S11300B0C82F662311F0289A01C02898549A559A9B
S11300C0569A579A5F985E985D985C98CC230CF486
S11300D05F9AC6FD5E9AC5FD5D9AC4FD5C9A0E9456
S11300E053005F985E985D985C98C3FD5F9AC2FD6B
S11300F05E9AC1FD5D9AC0FD5C9A0E9453005C9AB1
S11301005D9A5E9A5F9A8AEF8A95F1F7CF91089586
S113011060E00E9457000895611104C080580E9455
S11301208800089580540E948800089581E00E9408
S11301308800089561E00E9457000895CF93DF93EB
S1130140EC012196FC018081882329F00E949A0009
S113015089918111FBCFDF91CF910895CF93C82F5F
S1130160209A559A219A549A559A569A579A8FE9F1
S11301709FE00197F1F700C000005D9A5C9A0E942D
S1130180530081EE94E00197F1F700C000000E9453
S1130190530095E19A95F1F700000E94530085E120
S11301A08A95F1F700005C980E94530095E19A95B6
S11301B0F1F7000088E20E94880088E00E9488002D
S11301C00E94960086E00E9488008C2F0E9488007E
S11301D0CF9108959C019FE080E020FD8F5F3695CC
S11301E027959150D1F78095817008958CE00E94F5
S11301F0AE0060E081E00E948C0080E091E00E940B
S11302009E0061E083E00E948C0087E091E00E9400
S11302109E0060E088E00E948C008FE091E00E94E4
S11302209E0060E08DE00E948C0081E191E00E94DC
S11302309E0061E088E00E948C0083E191E00E94CE
S11302409E00ECE7F0E08081806480838081807F81
S11302508083EAE7F0E08081806880838081886021
S11302608083808187608083EFE6F0E08081816015
S11302708083E1E8F0E080818B7F808380818360EC
S1130280808387E690E00E9483027894FFCF1F92D8
S11302900F920FB60F9211248F93EF93FF938091D7
S11302A05801833041F410925801EAE7F0E080816C
S11302B08064808303C08F5F80935801FF91EF9126
S11302C08F910F900FBE0F901F9018951F920F9251
S11302D00FB60F9211240F931F932F933F934F93B5
S11302E05F936F937F938F939F93AF93BF93EF939A
S11302F0FF93CF93DF9300D000D0CDB7DEB780E378
S113030090E39A8389839C838B8300917800109176
S113031079004AE0BE016F5F7F4FC8010E94C002AE
S113032060E088E00E948C0085E191E00E949E00DC
S113033060E088E00E948C00CE0101960E949E003D
S11303400135110520F48AE191E00E94B102C8014F
S1130350815591098D36910520F487E291E00E9440
S1130360B102C8018F5B9109833B910520F481E3BD
S113037091E00E94B102C80183579140873C9105E6
S113038020F48DE391E00E94B102C8018B539240A6
S11303908138910520F48DE391E00E94B102C801F7
S11303A08D5B92408538914020F489E491E00E946D
S11303B0B102CE0101960E94B10285E591E00E944E
S11303C0B10240E1BE016F5F7F4FC8010E94C002CD
S11303D060E08DE00E948C0085E191E00E949E0027
S11303E060E08DE00E948C00CE0101960E949E0088
S11303F0C8010E94EA004AE0BE016F5F7F4F90E0AF
S11304000E94C00261E08CE00E948C0085E191E0D2
S11304100E949E0061E08CE00E948C00CE01019657
S11304200E949E000F900F900F900F90DF91CF913C
S1130430FF91EF91BF91AF919F918F917F916F91B8
S11304405F914F913F912F911F910F910F900FBE8C
S11304500F901F9018951F920F920FB60F921124B0
S11304602F938F939F93EF93FF938091C0002091DC
S1130470C6008C71E0915B01EF5FEF7190915A01BE
S1130480E91739F0E0935B01F0E0E25AFE4F208374
S113049001C082E090915901892B80935901FF9109
S11304A0EF919F918F912F910F900FBE0F901F90FE
S11304B018951F920F920FB60F9211248F939F934A
S11304C0EF93FF9390915D0180915C01981769F01F
S11304D0E0915C01EF5FEF71E0935C01F0E0E258C2
S11304E0FE4F80818093C60005C0E1ECF0E080817E
S11304F08F7D8083FF91EF919F918F910F900FBE1D
S11305000F901F90189510925D0110925C0110924B
S11305105B0110925A0199231CF422E02093C0003D
S113052090789093C5008093C40088E98093C100BB
S113053086E08093C200089520915D012F5F2F71A2
S113054090915C012917E1F3E22FF0E0E258FE4FAD
S1130550808320935D01E1ECF0E080818062808300
S11305600895CF93DF93EC018881882331F021969D
S11305700E949C0289918111FBCFDF91CF91089554
S1130580BB274A3031F4992322F4BDE2909581953A
S11305909F4F0C94CC02BB27FB015527AA27880F39
S11305A0991FAA1FA41710F0A41B83955051B9F7E3
S11305B0A05DAA3308F0A95DA193009779F7B11162
S11305C0B1931192CB010C94E502DC01FC01672F7D
S11305D071917723E1F7329704C07C916D93708316
S11105E06291AE17BF07C8F30895F894FFCFD9
S11305EE76616C75653A007061726974793A00616E
S11305FE0062006300202020200072696768742066
S113060E627574746F6E00757020627574746F6E9B
S113061E00646F776E20627574746F6E006C65661D
S113062E7420627574746F6E006E6F6E65206275E1
S10B063E74746F6E000D0A00D4
S9030000FC
