S01700004763634170706C69636174696F6E312E737265635B
S11300000C9434000C943E000C943E000C943E007E
S11300100C943E000C943E000C943E000C943E0064
S11300200C943E000C943E000C943E000C943E0054
S11300300C943E000C943E000C943E000C943E0044
S11300400C943E000C943E000C943E000C943E0034
S11300500C943E000C943E000C943E000C943E0024
S11300600C943E000C943E0011241FBECFEFD8E048
S1130070DEBFCDBF0E9440000C948E000C940000A3
S11300803D9A45983C9A44983B9A43983A9A4298A8
S1130090399A41988AB11AB85C9A90E24C99FECF89
S11300A098B92FEF34E38CE0215030408040E1F7E1
S11300B000C0000088B1869588B92FEF34E38CE046
S11300C0215030408040E1F700C0000088B186959F
S11300D088B92FEF34E38CE0215030408040E1F7C1
S11300E000C0000088B1869588B92FEF34E38CE016
S11300F0215030408040E1F700C0000088B186956F
S113010088B92FEF34E38CE0215030408040E1F790
S113011000C0000088B1869588B9C0CFF894FFCF9D
S9030000FC
