S00B00006C63642E73726563E6
S11300000C9434000C9451000C9451000C94510045
S11300100C9451000C9451000C9451000C94510018
S11300200C9451000C9430010C9451000C94510028
S11300300C9451000C9451000C9451000C945100F8
S11300400C942A020C9451000C9451000C9451000D
S11300500C9451000C9451000C9451000C945100D8
S11300600C9451000C94510011241FBECFEFD8E022
S1130070DEBFCDBF11E0A0E0B1E0EEE6F5E002C0E6
S113008005900D92A633B107D9F721E0A6E3B1E0BC
S113009001C01D92AD33B207E1F70E94EE000C944B
S11300A0B5020C940000299A000029980895CF9372
S11300B0C82F662311F0289A01C02898549A559A9B
S11300C0569A579A5F985E985D985C98CC230CF486
S11300D05F9AC6FD5E9AC5FD5D9AC4FD5C9A0E9456
S11300E053005F985E985D985C98C3FD5F9AC2FD6B
S11300F05E9AC1FD5D9AC0FD5C9A0E9453005C9AB1
S11301005D9A5E9A5F9A8AEF8A95F1F7CF91089586
S113011060E00E945700089561E00E94570008952E
S1130120611104C080580E948800089580540E9480
S11301308800089581E00E948800089561E00E948B
S113014057000895CF93DF93EC012196FC01808141
S1130150882329F00E949E0089918111FBCFDF91B1
S1130160CF910895CF93C82F209A559A219A549AE3
S1130170559A569A579A8FE99FE00197F1F700C074
S113018000005D9A5C9A0E94530081EE94E001970E
S1130190F1F700C000000E94530095E19A95F1F731
S11301A000000E94530085E18A95F1F700005C98F5
S11301B00E94530095E19A95F1F7000088E20E94AD
S11301C0880088E00E9488000E949A0086E00E94CD
S11301D088008C2F0E948800CF910895CF93DF93DD
S11301E0CDB7DEB7E0970FB6F894DEBF0FBECDBF34
S11301F080E3E0E0F1E0DE01119601900D928A9532
S1130200E1F78CE00E94B20080E40E9488008E0135
S11302100F5F1F4F7E0181E3E80EF11CF80181910D
S11302208F010E948C000E151F05C1F780E80E9403
S11302308800E0E7F0E0808181608083E1EBF0E01A
S113024080818760808385B58D7F85BD85B5856018
S113025085BDEEE6F0E08081816080837894FFCFF5
S11302601F920F920FB60F9211240F931F932F9387
S11302703F934F935F936F937F938F939F93AF932A
S1130280BF93EF93FF93CF93DF9300D0CDB7DEB747
S113029080E290E29A83898380913C018F5F86306B
S11302A018F480933C01BFC010923C0180913B0143
S11302B08F5F8A3018F480933B0107C010923B0192
S11302C080913A018F5F80933A0180913A018C3397
S11302D038F0809139018F5F8093390110923A018F
S11302E0809139018C3310F01092390180913901D9
S11302F04AE0BE016F5F7F4F90E00E9480028091D0
S113030039018A3080F460E081E00E94900080E34B
S11303100E949E0060E082E00E949000CE0101965F
S11303200E94A20008C060E081E00E949000CE011B
S113033001960E94A20060E083E00E9490008AE39C
S11303400E949E0080913A014AE0BE016F5F7F4F98
S113035090E00E94800280913A018A3080F460E04B
S113036084E00E94900080E30E949E0060E085E0AB
S11303700E949000CE0101960E94A20008C060E095
S113038084E00E949000CE0101960E94A20060E0E9
S113039086E00E9490008EE20E949E0080913B01C4
S11303A04AE0BE016F5F7F4F90E00E94800260E0F0
S11303B087E00E949000CE0101960E94A200009165
S11303C03A01009F800111244AE0BE016F5F7F4F14
S11303D0C8010E94800260E08BE00E94900080E3EC
S11303E091E00E94A2000A30110528F460E08EE03A
S11303F00E94900014C00436110528F460E08DE0DA
S11304000E9490000CC0083E134028F460E08CE089
S11304100E94900004C060E08BE00E949000CE0136
S113042001960E94A2000F900F90DF91CF91FF914F
S1130430EF91BF91AF919F918F917F916F915F9158
S11304404F913F912F911F910F910F900FBE0F90DD
S11304501F9018951F920F920FB60F9211242F938D
S11304603F934F935F936F937F938F939F93AF9338
S1130470BF93CF93EF93FF9380913801863038F088
S1130480809137018F5F80933701109238018091FA
S1130490370161E08F5F0E949000809138010E94D3
S11304A09E00809138018F5F8093380180913601DE
S11304B08B3378F01092370110923601C0E0CF5F91
S11304C061E08C2F0E94900080E00E949E00CB305F
S11304D0B1F7809136018F5F80933601FF91EF91E0
S11304E0CF91BF91AF919F918F917F916F915F91C8
S11304F04F913F912F910F900FBE0F901F90189521
S1130500BB274A3031F4992322F4BDE290958195BA
S11305109F4F0C948C02BB27FB015527AA27880FF9
S1130520991FAA1FA41710F0A41B83955051B9F763
S1130530A05DAA3308F0A95DA193009779F7B111E2
S1130540B1931192CB010C94A502DC01FC01672F3D
S113055071917723E1F7329704C07C916D93708396
S11105606291AE17BF07C8F30895F894FFCF59
S113056E00000000000000001010101010101010F9
S113057E18181818181818181C1C1C1C1C1C1C1CC9
S113058E1E1E1E1E1E1E1E1E1F1F1F1F1F1F1F1F71
S109059E30303030000093
S9030000FC
