S00E000074696D6572732E7372656382
S11300000C9434000C9446000C9446000C94460066
S11300100C9446000C9446000C9446000C94460044
S11300200C9446000C9446000C9446000C94460034
S11300300C9446000C94CF000C9446000C9446009B
S11300400C9446000C9446000C9446000C94460014
S11300500C9446000C9446000C9446000C94460004
S11300600C9446000C94460011241FBECFEFD8E038
S1130070DEBFCDBF21E0A0E0B1E001C01D92A13000
S1130080B207E1F70E9489000C941E010C94000051
S1130090FC01408121E030E002C0220F331F6A9549
S11300A0E2F7242B20830895FC01808121E030E0D5
S11300B002C0220F331F6A95E2F7922F909589238D
S11300C0808380818181282B21830895FC01908184
S11300D021E030E002C0220F331F6A95E2F7209539
S11300E0292320830895FC01408121E030E002C0EF
S11300F0220F331F6A95E2F7242B20830895FC0115
S1130100808190E002C0959587956A95E2F78170A9
S1130110089565E087E290E00E94480065E088E287
S113012090E00E94730064E087E290E00E9448003F
S113013064E088E290E00E94660063E087E290E079
S11301400E94480063E088E290E00E94660062E05A
S113015087E290E00E94480062E088E290E00E941A
S1130160660061E087E290E00E94480061E088E276
S113017090E00E94660064E08AE290E00E945400ED
S1130180E1E8F0E080818C7F8083808184608083DB
S1130190EFE6F0E08081816080837894FFCF1F9246
S11301A00F920FB60F9211242F933F934F935F93A7
S11301B06F937F938F939F93AF93BF93EF93FF932B
S11301C0809100018F5F8093000188B1869588B982
S11301D080910001853021F41092000180E288B9F9
S11301E064E089E290E00E947F0064E089E290E0AC
S11301F00E947F00811109C0E1E8F0E080818B7FDB
S1130200808380818360808308C0E1E8F0E080819E
S11302108C7F8083808184608083FF91EF91BF9184
S1130220AF919F918F917F916F915F914F913F918A
S11302302F910F900FBE0F901F901895F894FFCF39
S9030000FC
