S01200006C63645F637573746F6D2E73726563E5
S11300000C9434000C9451000C9451000C94510045
S11300100C9451000C9451000C9451000C94510018
S11300200C9451000C9485010C9451000C945100D3
S11300300C9451000C9451000C9451000C945100F8
S11300400C9430010C9451000C9451000C94510008
S11300500C9451000C9451000C9451000C945100D8
S11300600C9451000C94510011241FBECFEFD8E022
S1130070DEBFCDBF11E0A0E0B1E0E2E6F5E002C0F2
S113008005900D92A633B107D9F721E0A6E3B1E0BC
S113009001C01D92AD33B207E1F70E94EE000C944B
S11300A0AF020C940000299A000029980895CF9378
S11300B0C82F662311F0289A01C02898549A559A9B
S11300C0569A579A5F985E985D985C98CC230CF486
S11300D05F9AC6FD5E9AC5FD5D9AC4FD5C9A0E9456
S11300E053005F985E985D985C98C3FD5F9AC2FD6B
S11300F05E9AC1FD5D9AC0FD5C9A0E9453005C9AB1
S11301005D9A5E9A5F9A8AEF8A95F1F7CF91089586
S113011060E00E945700089561E00E94570008952E
S1130120611104C080580E948800089580540E9480
S11301308800089581E00E948800089561E00E948B
S113014057000895CF93DF93EC012196FC01808141
S1130150882329F00E949E0089918111FBCFDF91B1
S1130160CF910895CF93C82F209A559A219A549AE3
S1130170559A569A579A8FE99FE00197F1F700C074
S113018000005D9A5C9A0E94530081EE94E001970E
S1130190F1F700C000000E94530095E19A95F1F731
S11301A000000E94530085E18A95F1F700005C98F5
S11301B00E94530095E19A95F1F7000088E20E94AD
S11301C0880088E00E9488000E949A0086E00E94CD
S11301D088008C2F0E948800CF910895CF93DF93DD
S11301E0CDB7DEB7E0970FB6F894DEBF0FBECDBF34
S11301F080E3E0E0F1E0DE01119601900D928A9532
S1130200E1F78CE00E94B20080E40E9488008E0135
S11302100F5F1F4F7E0181E3E80EF11CF80181910D
S11302208F010E948C000E151F05C1F780E80E9403
S11302308800EEE6F0E080818160808385B58D7F63
S113024085BD85B5856085BDE0E7F0E0808181608E
S11302508083E1EBF0E08081876080837894FFCF36
S11302601F920F920FB60F9211242F933F934F9327
S11302705F936F937F938F939F93AF93BF93CF932A
S1130280EF93FF9380913C0161E08F5F0E949000A7
S113029080913B010E949E0080913B01853020F4B7
S11302A08F5F80933B0107C080913C018F5F8093F7
S11302B03C0110923B0180913A018B3379F4109206
S11302C03C0110923A01C0E0CF5F61E08C2F0E94A4
S11302D0900080E00E949E00CC30B1F780913A01FA
S11302E08F5F80933A01FF91EF91CF91BF91AF91CE
S11302F09F918F917F916F915F914F913F912F913A
S11303000F900FBE0F901F9018951F920F920FB66B
S11303100F921124EF92FF920F931F932F933F9309
S11303204F935F936F937F938F939F93AF93BF93F9
S1130330EF93FF93CF93DF9300D0CDB7DEB780E286
S113034090E29A838983809139018F5F863018F413
S113035080933901B6C010923901809138018F5FC2
S11303608A3018F48093380107C0109238018091C4
S113037037018F5F80933701809137018C3338F0D8
S1130380809136018F5F80933601109237018091FE
S113039036018C3310F010923601809136014AE018
S11303A0BE016F5F7F4F90E00E947A028091360118
S11303B08A3060F460E081E00E94900080E30E9453
S11303C09E0060E082E00E94900004C060E081E052
S11303D00E949000CE0101960E94A20060E083E09A
S11303E00E9490008AE30E949E00809137014AE0B7
S11303F0BE016F5F7F4F90E00E947A0280913701C7
S11304008A3060F460E084E00E94900080E30E94FF
S11304109E0060E085E00E94900004C060E084E0FB
S11304200E949000CE0101960E94A2008EE20E94DA
S11304309E00809138014AE0BE016F5F7F4F90E0DB
S11304400E947A0260E087E00E949000CE0101964B
S11304500E94A20080913701889F700111248701B6
S1130460811108C060E08BE00E94900080E391E07D
S11304700E94A2004AE0BE016F5F7F4FC7010E9445
S11304807A020A30110528F460E08EE00E949000A0
S113049014C00436110528F460E08DE00E94900039
S11304A00CC0083E134028F460E08CE00E949000E9
S11304B004C060E08BE00E949000CE0101960E948F
S11304C0A2000F900F90DF91CF91FF91EF91BF9118
S11304D0AF919F918F917F916F915F914F913F91D8
S11304E02F911F910F91FF90EF900F900FBE0F90DF
S11304F01F901895BB274A3031F4992322F4BDE2AA
S1130500909581959F4F0C948602BB27FB0155273C
S1130510AA27880F991FAA1FA41710F0A41B83955C
S11305205051B9F7A05DAA3308F0A95DA1930097D3
S113053079F7B111B1931192CB010C949F02DC01B4
S1130540FC01672F71917723E1F7329704C07C9106
S11305506D9370836291AE17BF07C8F30895F89442
S1050560FFCFC7
S11305620000000000000000101010101010101005
S113057218181818181818181C1C1C1C1C1C1C1CD5
S11305821E1E1E1E1E1E1E1E1F1F1F1F1F1F1F1F7D
S10905923030303000009F
S9030000FC
